:060000000C942A000C9490
:1000060045000C9400000C9400000C9400000C9425
:1000160000000C9400000C9400000C9400000C945A
:1000260000000C9400000C9400000C9400000C944A
:1000360000000C9400000C9400000C9400000C943A
:1000460000000C9400000C9400000C940000F8943E
:10005600EE27ECBBF1E0FBBFEBBFE5BF8DE0A2E016
:10006600BB27ED938A95E9F780E098E0A0E6ED934B
:100076000197E9F7EFE5EDBFE8E0EEBFC0E6D2E0B5
:100086000C94C0000A921A92FA926A937A938A930F
:100096009A93AA93BA93EA93FA93EFB7EA93E3B3E0
:1000A600EF70E13019F480D0A9E00EC0E23019F407
:1000B6007BD0A3E109C0E43019F476D0AAE104C0EC
:1000C600E83019F471D0A6E23FD0E5B7E068E5BFA5
:1000D600E991EFBFF991E991B991A9919991899126
:1000E60079916991F990199009901895AA931A93A4
:1000F60010E0E981E03011F0D89801C0D89AE0E02C
:10010600E2BFE9E0E3BF1F37D1F0E8B7E1FF16C071
:10011600E0E0E2BFE8B7E260E8BFE981E03031F451
:10012600D89B02C0D89801C0D89A01C0D8981F5F42
:100136001F3321F4E9810E94EE00E983E4CFE0E079
:10014600E3BF188122960895AA931A9332D031D02C
:10015600AB81CCDF14E010302CF0E12FAA812ED039
:100166001150F9CF15E010302CF0E12FA98126D0DF
:100176001150F9CF188124960895E0E0E3BFE2BF5D
:10018600EFE6ECBFD09AD898E0E0E4BBE0E4EBBF42
:10019600E3E0E5BFE5B7E06AE5BF7894EFEFE7BBDC
:1001A600E0E0E8BBFFCFFFCFE1E0EA93E9E1EA93C5
:1001B6000895EB810E94EE00AE2F98CF0E94E600D4
:1001C600E170AE2F93CFEE230E2EEA2F19F0E695AF
:1001D6000A94E9F70895EE23E1E009F0EE27089581
:00000001FF
